:10089B005374617274696E672E2E2E00524551553A
:1008AB00455354494E47002E00564F4C5441474533
:1008BB00202020202000205620200050524553534A
:1008CB005552452020202020004B500054454D50C0
:0F08DB0045524154555245202020004320200013
:0F0A8F00E4F58AF58CD28C308DFDC28CC28D229D
:10097700D3EF9400EE6480948040257DFAEDD39404
:10098700007480948040031D80F37DF8EDD39400BC
:100997007480948040031D80F3EF1F70D31E80D0B6
:0109A700222D
:100A7F008F90C2A0D2A17F057E00120977C2A1225A
:0B0A4B00AC99C298AF06120A56AF0427
:100A56008F90D2A0D2A17F017E00120977C2A12277
:0609A8007BFF7A0879B222
:1009AE008B088A09890AAB08AA09A90A120A666085
:1009BE0013050AE50A7002050914F9120A66FF12F8
:0509CE000A5680E22240
:100800007F0C120A7F7F38120A7F7F01120A7F7FD6
:1008100080120A7F7BFF7A08799B1209AEE4FFEF12
:10082000C3940D748094805006120A8F0F80F07F5D
:1008300001120A7F7BFF7A0879A71209AE7FC012E6
:100840000A7F1209A8E4FFEFC3940D7480948050CE
:1008500006120A8F0F80F01209A8E4FFEFC3940D6F
:10086000748094805006120A8F0F80F01209A8E459
:10087000FFEFC3940D748094805006120A8F0F808E
:10088000F01209A8E4FFEFC3940D74809480500621
:0B089000120A8F0F80F07F01020A7F28
:100A25007BFF7A0879B41209AE7FC0120A7F30982D
:100A3500FDAF99C298120A567BFF7A0879C112094F
:060A4500AE7F80020A7F73
:1009D3007BFF7A0879C61209AE7FC0120A7F30986E
:1009E300FDAE99C2983098FD120A4B7BFF7A0879C5
:0909F300D41209AE7F80020A7FD4
:1009FC007BFF7A0879D71209AE7FC0120A7F309834
:100A0C00FDAE99C2983098FD120A4B7BFF7A08799B
:090A1C00E61209AE7F80020A7F98
:10093100C2A3D2A7D2B320A20A7599563099FDC29B
:10094100997F0120A40A7599503099FDC2997F02BF
:1009510020A50A7599543099FDC2997F0320A60AF2
:1009610075992A3099FDC2997F0FD2A3C2A7D2B33C
:0509710020A2027F102E
:01097600225E
:1008EA00C2B2758921758DFD759850D28E12080095
:1008FA00120931EF64017003120A25120931EF64FB
:10090A000270031209D3120931EF6403700312094A
:10091A00FC120931EF640F7002D2B2120931EF648E
:07092A001070CDC2B280C9BC
:03000000020A9E53
:0C0A9E00787FE4F6D8FD75810A0208EAB2
:100A6600BB010689828A83E0225002E722BBFE028E
:090A7600E32289828A83E49322C1
:00000001FF
