:03002300020D1FAC
:100D1F00C0E0C0F0C083C082C0D075D000C000C09A
:0D0D2F0001C002C003C004C005C006C0071B
:100D3C00309873E599B45606120E73120E03E599AA
:100D4C0064507053120E8EAC07E4120B218F0B8E75
:100D5C000A8D098C08E4FFFE7DA07C3CAB0BAA0A33
:100D6C00A909A8081208F8E4FBFA79A07840120A3D
:100D7C00017BEC7A5179B8783D1208077BBC7A7408
:100D8C007913783C120A01E4FBFA798078BF1208D7
:100D9C0007120B55120E51E599B45406120EA912F6
:060DAC000DCDC298D28CAF
:100DB200D007D006D005D004D003D002D001D00095
:0B0DC200D0D0D082D083D0F0D0E0323F
:080EC400C299120ECC120ECCF3
:0F0ECC00E4F58AF58CD28C308DFDC28CC28D225C
:100E7300C2A0C2A1C2A2D2A3D2A5C2A3C2A520A6C8
:0A0E8300FD30A6FDD2A4AF90C2A47A
:010E8D002242
:100E8E00D2A0C2A1C2A2D2A3D2A5C2A3C2A520A69D
:0A0E9E00FD30A6FDD2A4AF90C2A45F
:010EA8002227
:100EA900C2A0D2A1C2A2D2A3D2A5C2A3C2A520A682
:0A0EB900FD30A6FDD2A4AF90C2A444
:010EC300220C
:100E0300AC07E4120B217BD77AA379A078401208B0
:100E1300F8E4FBFA79807843120A01120B55EF24A8
:090E230030F5993099FDC29922C5
:100E5100EF75F00A84FE2430F5993099FD120EC425
:100E6100EF75F00A84AFF074302FF5993099FDC217
:010E710099E7
:010E7200225D
:100DCD00AC07E4120B217BE37AA579FB783F12087F
:100DDD00F8120B55EF75F00A84FE2430F599309911
:100DED00FD120EC4EF75F00A84AFF074302FF59933
:050DFD003099FDC299D0
:010E020022CD
:100EDB00EF25E075F00A84D394037480948040036B
:050EEB00D2B222C2B2E8
:010EF00022DF
:100BE400AC07E4120B21E4FBFA79A0783C1208F874
:100BF400E4FBFA79A07840120A017BEC7A5179B8C7
:100C0400783D1208077BBC7A747913783C120A0188
:100C1400E4FBFA798078BF120807E4FBFA792078BC
:100C240041120A018F0F8E0E8D0D8C0CE4FFFE7D98
:100C3400807C40AB0FAA0EA90DA80C120A9E401C82
:100C4400E4FFFE7DA07C40AB0FAA0EA90DA80C12F8
:100C54000A9E5008D2B4C2B5C2B6D2B7E4FFFE7D34
:100C6400A07C40AB0FAA0EA90DA80C120A9E401C32
:100C7400E4FFFE7DC07C40AB0FAA0EA90DA80C12A8
:100C84000A9E5008C2B4C2B5C2B6D2B7E4FFFE7D14
:100C9400C07C40AB0FAA0EA90DA80C120A9E401CE2
:100CA400E4FFFE7DE07C40AB0FAA0EA90DA80C1258
:100CB4000A9E5008C2B4C2B5D2B6D2B7E4FFFE7DD4
:100CC400E07C40AB0FAA0EA90DA80C120A9E401B93
:100CD400E4FFFEFD7C41AB0FAA0EA90DA80C120A7D
:100CE4009E5008C2B4C2B5D2B6C2B7E4FFFEFD7CC2
:100CF40041AB0FAA0EA90DA80C120A9E401CE4FFDA
:100D0400FE7D107C41AB0FAA0EA90DA80C120A9E01
:0A0D14005008C2B4D2B5D2B6C2B77F
:010D1E0022B2
:100E2C00120ECCD2A6C2A4C2A5C2A3758921758DFF
:100E3C00FD75985075A890D28E120E8E120BE4127E
:050E4C000EA9020EDBFF
:10080000020BC1E86480F8E933E83360110460F05A
:10081000ED33EC337009E8FCE9FDEAFEEBFF22045E
:1008200060DED3EB9FEA9EE99DE8C2E78CF0C2F759
:1008300095F0400CE8CCF8E9CDF9EACEFAEBCFFB25
:10084000120B8C85D0F05804700320D5B3E80470E7
:10085000075002B2D5020BCB92D5EC0460F7E4CC82
:10086000C0E0C398F8603B94186008400DD0E0FBEE
:10087000020BA3E4FBFAC9FC8028E830E406E4C9D3
:10088000FBE4CAFCE830E305E4C9CACBFCE8540742
:100890006010F8C3E913F9EA13FAEB13FBEC13FC4D
:1008A000D8F130F52FC3E49CFCEF9BFFEE9AFEEDF0
:1008B00099FDD0E0FBEF4E4D4C701222DB03020B92
:1008C000C8EC2CFCEF33FFEE33FEED33FDED30E7EB
:1008D000EB020BA3EF2BFFEE3AFEED39FDD0E0FB70
:1008E00050130BBB0003020BCBED13FDEE13FEEF19
:0808F00013FFEC13FC020BA343
:1008F800EC4D6011E8497017ED33EC3304600DE4FA
:10090800FCFFFEFD22E933E8330470F8020BC11244
:100918000B8C58046009E4CC248150062850090245
:100928000BCB284003020BC8C0E0EB4A7044B980E7
:1009380006D0E0FB020BB7EF4E701CBD8008EBFF42
:10094800EAFEE9FD80EBE98DF0A4FEE5F00209E19D
:10095800E9CDF9EAFEEBFFEF89F0A4FCE5F0CE89DA
:10096800F0A42EFFE435F0CD89F0A42DFEE435F097
:100978008067EF4E7005BD80D780C3EF8BF0A4ACC5
:10098800F0EE8BF0A42CFCE435F0F8EF8AF0A42C00
:10099800E5F038FCE433CB8DF0A42CFCE5F03BF813
:1009A800EE8AF0A42CFCE5F038F8E433CF89F0A403
:1009B8002CFCE5F038CF3400CE89F0A42FFFE5F009
:1009C8003EFEE433C98DF0A42EFEE5F039CD8AF061
:1009D800A42FFFE5F03EFEE43DFD33D0E0FB5007D9
:1009E8000BBB000F020BCBEC2CFCEF33FFEE33FEFE
:0609F800ED33FD020BA32C
:1009FE00020BCBEC5D046005E859047003020BC1D9
:100A0E00120B8C580460F6EC4860F2EC7004FDFE9C
:100A1E00FF22C860DB2481C85009C39860025006CB
:100A2E00020BC89850CAF582E9294B4A7005AB8271
:100A3E00020BB775F0007C1A7880C3EF9BEE9AED2F
:100A4E0099400DC3EF9BFFEE9AFEED99FDE842F043
:100A5E00DC23ACF0D0E0FFD0E0FED0E0FDAB822096
:100A6E00E7101BEB60BAEC2CFCEF33FFEE33FEED20
:100A7E0033FD020BA3E803F830E705C0F075F00074
:100A8E00EF2FFFEE33FEED33FD40B830E7C280AA04
:100A9E0074F8CC6480CCC86480C8F58204604FC3FF
:100AAE00EB9FF5F0EA9E42F0E99D42F0E89C45F09E
:100ABE00603C501DE5825FFFE582D313CB5BCBF428
:100ACE002B5582FB50280ABA002409B90020088051
:100ADE001DE5825BFBE582D313CF5FCFF4C3132FEB
:100AEE005582FF50090EBE00050DBD00010CC3EB73
:100AFE009FF5F0EA9E42F0E99D42F0E89C45F060D9
:090B0E0007CC4820E701B3EC22FA
:100B170075F020800E75F010800575F0087D007E59
:100B2700007F003392D530D503120BD6EC3340103B
:100B3700EF33FFEE33FEED33FDEC33FCD5F0ED2262
:0E0B4700E5F0247EA2D513CC92E7CDCEFF229E
:100B5500EDD2E7CD33EC3392D524814006E4FFFE98
:100B6500FDFC22FCE4CFCECDCC24E0501174FF80F7
:100B7500EDC3CC13CCCD13CDCE13CECF13CF047094
:070B8500F030D5DE020BD6B3
:100B8C00E9D2E7C933E833F892D5EDD2E7CD33ECAF
:070B9C0033FC5002B2D52228
:100BA300EC30E7100FBF000C0EBE00080DBD0004B3
:100BB3000BEB6014A2D5EB13FCED92E7FD2274FF5F
:100BC300FCFDFEFF22E480F8A2D574FF13FC7D80B8
:030BD300E480EFCC
:03000000020EF1FC
:0C0EF100787FE4F6D8FD75810F020E2C0E
:0E0BD600C3E49FFFE49EFEE49DFDE49CFC2230
:00000001FF
